:1000000000020020750C0000ED0C0000F50C000053
:10001000FD0C0000FD0C0000FD0C000000000000C5
:10002000000000000000000000000000FD0C0000C7
:10003000FD0C000000000000FD0C0000FD0C0000A5
:10004000FD0C0000FD0C0000FD0C0000FD0C00008C
:10005000FD0C0000FD0C0000FD0C0000FD0C00007C
:10006000FD0C0000FD0C0000FD0C0000FD0C00006C
:10007000FD0C0000FD0C0000FD0C0000FD0C00005C
:10008000FD0C0000FD0C0000FD0C0000FD0C00004C
:10009000FD0C0000FD0C0000FD0C0000FD0C00003C
:1000A000FD0C0000FD0C0000FD0C0000FD0C00002C
:1000B000FD0C0000FD0C0000FD0C0000FD0C00001C
:1000C000FD0C0000FD0C0000FD0C0000FD0C00000C
:1000D000FD0C0000FD0C0000FD0C0000FD0C0000FC
:1000E000FD0C00000000000000000000FD0C0000FE
:1000F000FD0C0000FD0C0000FD0C0000FD0C0000DC
:10010000FD0C0000FD0C0000FD0C0000FD0C0000CB
:100110000000000000000000FD0C0000FD0C0000CD
:10012000FD0C0000FD0C0000FD0C0000FD0C0000AB
:10013000FD0C0000FD0C0000FD0C0000FD0C00009B
:1001400000000000000000000000000000000000AF
:10015000FD0C0000FD0C0000FD0C0000FD0C00007B
:10016000000000000000000000000000000000008F
:10017000000000000000000000000000000000007F
:10018000000000000000000000000000000000006F
:10019000000000000000000000000000000000005F
:1001A000000000000000000000000000000000004F
:1001B000FD0C0000FD0C0000FD0C0000FD0C00001B
:1001C000FD0C0000FD0C0000FD0C0000FD0C00000B
:1001D000FD0C0000FD0C0000FD0C0000FD0C0000FB
:1001E000FD0C0000FD0C0000FD0C000000000000F4
:1001F00000000000FD0C0000FD0C0000FD0C0000E4
:10020000FD0C0000FD0C00000000000000000000DC
:10021000FD0C0000FD0C0000FD0C0000FD0C0000BA
:10022000FD0C0000FD0C0000FD0C0000FD0C0000AA
:10023000FD0C0000FD0C0000FD0C0000FD0C00009A
:10024000FD0C0000FD0C0000FD0C0000FD0C00008A
:10025000FD0C0000FD0C0000FD0C0000FD0C00007A
:10026000FD0C0000FD0C0000FD0C000080B58CB002
:1002700000AF00F071FC00F0ADFC00F0B9FA4FF4F3
:10028000A860CCF2001000F029FE0023FB620023DE
:10029000BB6200237B6200233B620023FB6144F2CC
:1002A000FC33C4F200031B6803F00403BB6144F297
:1002B000FC33C4F200031B6803F008037B6144F2C3
:1002C000FC33C4F200031B6803F010033B6144F2EB
:1002D000FC33C4F200031B6803F02003FB6044F20C
:1002E000FC33C4F200031B6803F04003BB60BB692E
:1002F000002B40F09680FB6A0133FB624FF4D44040
:10030000C0F2180000F0A2FCFB6A012B0AD1002009
:100310000B2100F0D5FB41F20400C0F2000000F018
:1003200007FC7EE0FB6A022B0AD100200B2100F0C3
:10033000C7FB41F20800C0F2000000F0F9FB70E0DA
:10034000FB6A032B0AD100200B2100F0B9FB41F21C
:100350000C00C0F2000000F0EBFB62E0FB6A042B33
:100360000AD100200B2100F0ABFB41F21000C0F2DB
:10037000000000F0DDFB54E0FB6A052B0AD10020F1
:100380000B2100F09DFB41F21400C0F2000000F0D0
:10039000CFFB46E0FB6A062B0AD100200B2100F0C0
:1003A0008FFB41F21800C0F2000000F0C1FB38E002
:1003B000FB6A072B0AD100200B2100F081FB41F2E0
:1003C0001C00C0F2000000F0B3FB2AE0FB6A082B1F
:1003D0000AD100200B2100F073FB41F22000C0F293
:1003E000000000F0A5FB1CE0FB6A092B0AD10020ED
:1003F0000B2100F065FB41F22400C0F2000000F088
:1004000097FB0EE0FB6A0A2B0BD100200B2100F0BA
:1004100057FB41F22800C0F2000000F089FB0023E6
:10042000FB627B69002B40F09680BB6A0133BB62A4
:100430004FF4D440C0F2180000F008FCBB6A012B56
:100440000AD100200C2100F03BFB41F20400C0F275
:10045000000000F06DFB7EE0BB6A022B0AD1002099
:100460000C2100F02DFB41F20800C0F2000000F06A
:100470005FFB70E0BB6A032B0AD100200C2100F067
:100480001FFB41F20C00C0F2000000F051FB62E0E3
:10049000BB6A042B0AD100200C2100F011FB41F2B1
:1004A0001000C0F2000000F043FB54E0BB6A052BD3
:1004B0000AD100200C2100F003FB41F21400C0F22D
:1004C000000000F035FB46E0BB6A062B0AD1002095
:1004D0000C2100F0F5FA41F21800C0F2000000F023
:1004E00027FB38E0BB6A072B0AD100200C2100F063
:1004F000E7FA41F21C00C0F2000000F019FB2AE00C
:10050000BB6A082B0AD100200C2100F0D9FA41F275
:100510002000C0F2000000F00BFB1CE0BB6A092BBE
:100520000AD100200C2100F0CBFA41F22400C0F2E5
:10053000000000F0FDFA0EE0BB6A0A2B0BD1002090
:100540000C2100F0BDFA41F22800C0F2000000F0DA
:10055000EFFA0023BB623B69002B12D17B6A0133A7
:100560007B624FF4D440C0F2180000F06FFB002013
:100570000D2100F0A5FA41F22C00C0F2000000F0BD
:10058000D7FAFB68002B40F096803B6A01333B6250
:100590004FF4D440C0F2180000F058FB3B6A012B26
:1005A0000AD100200E2100F08BFA41F20400C0F2C3
:1005B000000000F0BDFA7EE03B6A022B0AD1002069
:1005C0000E2100F07DFA41F20800C0F2000000F0B8
:1005D000AFFA70E03B6A032B0AD100200E2100F035
:1005E0006FFA41F20C00C0F2000000F0A1FA62E0E4
:1005F0003B6A042B0AD100200E2100F061FA41F27F
:100600001000C0F2000000F093FA54E03B6A052BA2
:100610000AD100200E2100F053FA41F21400C0F27A
:10062000000000F085FA46E03B6A062B0AD1002064
:100630000E2100F045FA41F21800C0F2000000F06F
:1006400077FA38E03B6A072B0AD100200E2100F030
:1006500037FA41F21C00C0F2000000F069FA2AE00B
:100660003B6A082B0AD100200E2100F029FA41F242
:100670002000C0F2000000F05BFA1CE03B6A092B8E
:100680000AD100200E2100F01BFA41F22400C0F232
:10069000000000F04DFA0EE03B6A0A2B0BD100205F
:1006A0000E2100F00DFA41F22800C0F2000000F027
:1006B0003FFA00233B62BB68002B40F09780FB6948
:1006C0000133FB614FF4D440C0F2180000F0BEFAD1
:1006D000FB69012B0AD100200F2100F0F1F941F252
:1006E0000400C0F2000000F023FA7FE0FB69022B57
:1006F0000AD100200F2100F0E3F941F20800C0F216
:10070000000000F015FA71E0FB69032B0AD100200C
:100710000F2100F0D5F941F20C00C0F2000000F00A
:1007200007FA63E0FB69042B0AD100200F2100F0D7
:10073000C7F941F21000C0F2000000F0F9F955E0ED
:10074000FB69052B0AD100200F2100F0B9F941F215
:100750001400C0F2000000F0EBF947E0FB69062B43
:100760000AD100200F2100F0ABF941F21800C0F2CD
:10077000000000F0DDF939E0FB69072B0AD1002009
:100780000F2100F09DF941F21C00C0F2000000F0C2
:10079000CFF92BE0FB69082B0AD100200F2100F0D4
:1007A0008FF941F22000C0F2000000F0C1F91DE015
:1007B000FB69092B0AD100200F2100F081F941F2D9
:1007C0002400C0F2000000F0B3F90FE0FB690A2B2F
:1007D0000CD100200F2100F073F941F22800C0F283
:1007E000000000F0A5F90023FB6158E557E500BFC4
:1007F00080B500AF40F60100CFF2000000F052FBE0
:100800004FF4A040C4F20000FF2100F03CFB4CF28A
:10081000503000F05FFB4FF4A040C4F20000012113
:10082000002200F02DFB4FF4A040C4F20000F021A4
:10083000302200F025FB4FF4A040C4F2000002215A
:10084000022200F01DFB0A2000F044FB4FF4A04000
:10085000C4F200000221002200F012FB4CF25030E2
:1008600000F038FB4FF4A040C4F20000F021302229
:1008700000F006FB4FF4A040C4F200000221022267
:1008800000F0FEFA0A2000F025FB4FF4A040C4F26D
:1008900000000221002200F0F3FA4CF2503000F088
:1008A00019FB4FF4A040C4F20000F021302200F008
:1008B000E7FA4FF4A040C4F200000221022200F047
:1008C000DFFA0A2000F006FB4FF4A040C4F200005B
:1008D0000221002200F0D4FA4CF2503000F0FAFA73
:1008E0004FF4A040C4F20000F021202200F0C8FA2A
:1008F0004FF4A040C4F200000221022200F0C0FA2E
:100900000A2000F0E7FA4FF4A040C4F200000221F0
:10091000002200F0B5FA4CF2503000F0DBFA28204B
:1009200000F012F8C02000F00FF8062000F00CF8DC
:10093000802000F009F8282000F006F80F2000F0D1
:1009400003F800F0EBF880BD80B582B000AF03463D
:10095000FB71FB7923F00F03DBB24FF4A040C4F22C
:100960000000F0211A4600F08BFA4FF4A040C4F2C8
:1009700000000121002200F083FA4FF4A040C4F2ED
:1009800000000221022200F07BFA4CF2503000F00D
:10099000A1FA4FF4A040C4F200000221002200F0AE
:1009A0006FFA4CF2503000F095FAFB791B01DBB284
:1009B0004FF4A040C4F20000F0211A4600F060FAA3
:1009C0004FF4A040C4F200000121002200F058FAC8
:1009D0004FF4A040C4F200000221022200F050FABD
:1009E0000A2000F077FA4FF4A040C4F20000022180
:1009F000002200F045FA4CF2503000F06BFA083754
:100A0000BD4680BD80B582B000AF0346FB71FB7967
:100A100023F00F03DBB24FF4A040C4F20000F0213A
:100A20001A4600F02DFA4FF4A040C4F20000012154
:100A3000012200F025FA4FF4A040C4F20000022188
:100A4000022200F01DFA0A2000F044FA4FF4A04000
:100A5000C4F200000221002200F012FA4CF25030E1
:100A600000F038FAFB791B01DBB24FF4A040C4F26E
:100A70000000F0211A4600F003FA4FF4A040C4F23F
:100A800000000121012200F0FBF94FF4A040C4F264
:100A900000000221022200F0F3F90A2000F01AFA05
:100AA0004FF4A040C4F200000221002200F0E8F957
:100AB0004CF2503000F00EFA0837BD4680BD00BF42
:100AC00080B582B000AF02460B46FA71BB7197F950
:100AD0000730002B0FD197F90620D3171B0F1A44AC
:100AE00002F00F02D31ADBB2DBB2803BDBB2184656
:100AF000FFF72AFF0EE097F90620D3171B0F1A44C1
:100B000002F00F02D31ADBB2DBB2403BDBB2184675
:100B1000FFF71AFF0837BD4680BD00BF80B500AFA4
:100B20000120FFF711FF0A2000F0D4F980BD00BFBB
:100B300080B582B000AF786007E07B685A1C7A60AD
:100B40001B78DBB21846FFF75DFF7B681B78002B34
:100B5000F3D10837BD4680BD80B483B000AF4EF2FC
:100B60000813C4F20F034EF20812C4F20F02126807
:100B700042F002021A604EF20813C4F20F031B681F
:100B80007B604FF4A843C4F200034FF4A842C4F2C0
:100B90000002126842F00C021A6045F22043C4F2CF
:100BA000000345F22042C4F20002126822F00C0257
:100BB0001A6045F21C53C4F2000345F21C52C4F201
:100BC0000002126842F00C021A600C37BD465DF854
:100BD000047B704780B483B000AF4EF20813C4F2B8
:100BE0000F034EF20812C4F20F02126842F0010223
:100BF0001A604EF20813C4F20F031B687B604FF4B7
:100C00008843C4F200034FF48842C4F20002126821
:100C10001A6044F22043C4F2000344F22042C4F2BA
:100C20000002126822F0FF021A6044F21C53C4F260
:100C3000000344F21C52C4F20002126842F0FF02A8
:100C40001A600C37BD465DF8047B704780B485B0F0
:100C500000AF78600023FB6002E0FB680133FB60BB
:100C6000FA687B689A42F8DB1437BD465DF8047B6E
:100C7000704700BF80B582B000AF41F23003C0F2D0
:100C800000037B6040F20003C2F200033B6007E018
:100C90003B681A1D3A607A68111D796012681A6003
:100CA0003A6840F20003C2F200039A42F0D30D48C2
:100CB0000D494FF000028842B8BF40F8042BFADB20
:100CC0004EF68853CEF200034EF68852CEF2000262
:100CD000126842F470021A60FFF7C8FA0837BD467E
:100CE00080BD0000000000200002002080B400AFA2
:100CF000FEE700BF80B400AFFEE700BF80B400AFE6
:100D0000FEE700BFD0F8003412F0010F10B500F577
:100D1000806414BF0B438B43236012F0020FD0F8A2
:100D2000202400F5846314BF114322EA01011960F5
:100D300010BDF0B5560906F00306002451FA04F57B
:100D400015F0010F11D0D0F8C47F65004FF0030CEF
:100D50000CFA05FC27EA0C07C0F8C47FD0F8C47F62
:100D600016FA05F53D43C0F8C45F0134082CE5D1FF
:100D7000D0F8004512F0010F00F5A06514BF0C4338
:100D80008C432C60D0F8045500F5A06412F0020FDB
:100D900004F1040414BF0D438D432560D0F80845C9
:100DA00012F0040F00F5A16514BF0C438C432C60B6
:100DB000D0F8184512F0080F00F5A36514BF0C43D6
:100DC0008C432C60D0F83C4512F0100F00F5A66261
:100DD00002F10C0214BF0C438C431460D0F80C4594
:100DE00000F5A06213F0010F02F10C0214BF0C43D6
:100DF0008C431460D0F8102513F0020F00F5A264A4
:100E000014BF0A438A432260D0F8144500F5A26259
:100E100013F0040F02F1040214BF0C438C4314605E
:100E2000D0F81C4500F5A26213F0080F02F10C0285
:100E300014BF0C438C431460D0F8444500F5A862FD
:100E400013F4007F02F1040214BF0C438C431460BE
:100E5000D0F8402513F4407F00F5A86414BF0A437E
:100E60008A43226000F5A56223B9D0F8283543EA09
:100E7000010103E0D0F8283523EA01011160F0BD3B
:100E800040F82120704770B50122082305460C4622
:100E9000FFF74FFF284621460122BDE87040FFF7CB
:100EA00031BF00000A4B00F47F4200F0FF0003EB6B
:100EB0001223800003F0704240F0007023F07F4363
:100EC000104323F4700340EA431301221A60704771
:100ED00000E60F400138FDD1704700004149F0B5F0
:100EE000414E0D68346845F4006525F4800344F4F0
:100EF000006415F0010F0B60346016D010F0010F84
:100F000013D160F001021340384A4FF48075156028
:100F10000B604FF4002201E0013A62D034490968C5
:100F200011F4807FF8D0002A5BD000F4FE6223F435
:100F3000FE6330492D4E134324F0004200EA0101C4
:100F400022F0700241EA020200F0080142EAC10206
:100F5000244C2549236000F400550A6023F4005313
:100F600022F400522B4340272A4337604EBF0A60C9
:100F700023600A60204948BF236023F0F86300EA39
:100F8000010123F001030B4322F0FC5200F0FC515D
:100F900010F0804F42EA010208D0184922F4800282
:100FA00000EA010143F480030A4301E022F0804299
:100FB00010F4006F0CD14FF400411148006810F09C
:100FC000010F01D10139F8D123F4006322F400624A
:100FD00004490B60044B10201A60BDE8F040FFF795
:100FE00079BFF0BD60E00F4070E00F4058E00F4067
:100FF00050E00F40300000800100C007000040407A
:1010000068E10F40310000003200000033000000B2
:1010100034000000350000003600000037000000FA
:101020003800000039000000300000002E000000F1
:00000001FF
