:100000000002002055160000CD160000D516000095
:10001000DD160000DD160000DD1600000000000007
:10002000000000000000000000000000DD160000DD
:10003000DD16000000000000DD160000DD160000E7
:10004000DD160000DD160000DD160000DD160000E4
:10005000DD160000DD160000DD160000DD160000D4
:10006000DD160000DD160000DD160000DD160000C4
:10007000DD160000DD160000DD160000DD160000B4
:10008000DD160000DD160000DD160000DD160000A4
:10009000DD160000DD160000DD160000DD16000094
:1000A000DD160000DD160000DD160000DD16000084
:1000B000DD160000DD160000DD160000DD16000074
:1000C000DD160000DD160000DD160000DD16000064
:1000D000DD160000DD160000DD160000DD16000054
:1000E000DD1600000000000000000000DD1600002A
:1000F000DD160000DD160000DD160000DD16000034
:10010000DD160000DD160000DD160000DD16000023
:100110000000000000000000DD160000DD160000F9
:10012000DD160000DD160000DD160000DD16000003
:10013000DD160000DD160000DD160000DD160000F3
:1001400000000000000000000000000000000000AF
:10015000DD160000DD160000DD160000DD160000D3
:10016000000000000000000000000000000000008F
:10017000000000000000000000000000000000007F
:10018000000000000000000000000000000000006F
:10019000000000000000000000000000000000005F
:1001A000000000000000000000000000000000004F
:1001B000DD160000DD160000DD160000DD16000073
:1001C000DD160000DD160000DD160000DD16000063
:1001D000DD160000DD160000DD160000DD16000053
:1001E000DD160000DD160000DD1600000000000036
:1001F00000000000DD160000DD160000DD16000026
:10020000DD160000DD160000000000000000000008
:10021000DD160000DD160000DD160000DD16000012
:10022000DD160000DD160000DD160000DD16000002
:10023000DD160000DD160000DD160000DD160000F2
:10024000DD160000DD160000DD160000DD160000E2
:10025000DD160000DD160000DD160000DD160000D2
:10026000DD160000DD160000DD16000000000000B5
:10027000B0B598B000AF01F023F901F05FF901F0DB
:1002800099F900F069FF4FF4A860CCF2001001F07A
:1002900015FB0023FB650023BB6500237B65002362
:1002A0003B650023FB6444F2FC33C4F200031B688B
:1002B00003F00403BB6444F2FC33C4F200031B6884
:1002C00003F008037B6444F2FC33C4F200031B68B0
:1002D00003F010033B6444F2FC33C4F200031B68D8
:1002E00003F02003FB6344F2FC33C4F200031B68F9
:1002F00003F04003BB6344F2FC33C4F200031B6809
:1003000003F080037B6346F2FC33C4F200031B68F6
:1003100003F010033B63BB6C002B40F09680FB6D39
:100320000133FB654FF4D440C0F2180001F07EF9B0
:10033000FB6D012B0AD100200B2101F075F842F270
:100340006820C0F2000001F0A7F87EE0FB6D022BF0
:100350000AD100200B2101F067F842F26C20C0F2B4
:10036000000001F099F870E0FB6D032B0AD100202A
:100370000B2101F059F842F27020C0F2000001F0A8
:100380008BF862E0FB6D042B0AD100200B2101F0F9
:100390004BF842F27420C0F2000001F07DF854E006
:1003A000FB6D052B0AD100200B2101F03DF842F234
:1003B0007820C0F2000001F06FF846E0FB6D062BDC
:1003C0000AD100200B2101F02FF842F27C20C0F26C
:1003D000000001F061F838E0FB6D072B0AD1002026
:1003E0000B2101F021F842F28020C0F2000001F060
:1003F00053F82AE0FB6D082B0AD100200B2101F0F5
:1004000013F842F28420C0F2000001F045F81CE02D
:10041000FB6D092B0AD100200B2101F005F842F2F7
:100420008820C0F2000001F037F80EE0FB6D0A2BC7
:100430000BD100200B2100F0F7FF42F28C20C0F21C
:10044000000001F029F80023FB657B6C002B40F0D5
:100450009680BB6D0133BB654FF4D440C0F21800E9
:1004600001F0E4F8BB6D012B0AD100200C2100F053
:10047000DBFF42F26820C0F2000001F00DF87EE0E0
:10048000BB6D022B0AD100200C2100F0CDFF42F2FF
:100490006C20C0F2000000F0FFFF70E0BB6D032B8A
:1004A0000AD100200C2100F0BFFF42F27020C0F200
:1004B000000000F0F1FF62E0BB6D042B0AD10020C8
:1004C0000C2100F0B1FF42F27420C0F2000000F0F5
:1004D000E3FF54E0BB6D052B0AD100200C2100F096
:1004E000A3FF42F27820C0F2000000F0D5FF46E002
:1004F000BB6D062B0AD100200C2100F095FF42F2C3
:100500007C20C0F2000000F0C7FF38E0BB6D072B75
:100510000AD100200C2100F087FF42F28020C0F2B7
:10052000000000F0B9FF2AE0BB6D082B0AD10020C3
:100530000C2100F079FF42F28420C0F2000000F0AC
:10054000ABFF1CE0BB6D092B0AD100200C2100F091
:100550006BFF42F28820C0F2000000F09DFF0EE029
:10056000BB6D0A2B0BD100200C2100F05DFF42F285
:100570008C20C0F2000000F08FFF0023BB653B6CB5
:10058000002B12D17B6D01337B654FF4D440C0F258
:10059000180001F04BF800200D2100F045FF42F259
:1005A0009020C0F2000000F077FFFB6B002B40F0C2
:1005B00096803B6D01333B654FF4D440C0F2180088
:1005C00001F034F83B6D012B0AD100200E2100F020
:1005D0002BFF42F26820C0F2000000F05DFF7EE0D9
:1005E0003B6D022B0AD100200E2100F01DFF42F2CC
:1005F0006C20C0F2000000F04FFF70E03B6D032B59
:100600000AD100200E2100F00FFF42F27020C0F24C
:10061000000000F041FF62E03B6D042B0AD1002096
:100620000E2100F001FF42F27420C0F2000000F041
:1006300033FF54E03B6D052B0AD100200E2100F062
:10064000F3FE42F27820C0F2000000F025FF46E001
:100650003B6D062B0AD100200E2100F0E5FE42F290
:100660007C20C0F2000000F017FF38E03B6D072B44
:100670000AD100200E2100F0D7FE42F28020C0F205
:10068000000000F009FF2AE03B6D082B0AD1002092
:100690000E2100F0C9FE42F28420C0F2000000F0FA
:1006A000FBFE1CE03B6D092B0AD100200E2100F05F
:1006B000BBFE42F28820C0F2000000F0EDFE0EE02A
:1006C0003B6D0A2B0BD100200E2100F0ADFE42F253
:1006D0008C20C0F2000000F0DFFE00233B65BB6B06
:1006E000002B40F09680FB6C0133FB644FF4D44048
:1006F000C0F2180000F09AFFFB6C012B0AD1002019
:100700000F2100F091FE42F26820C0F2000000F0DC
:10071000C3FE7EE0FB6C022B0AD100200F2100F00B
:1007200083FE42F26C20C0F2000000F0B5FE70E0E3
:10073000FB6C032B0AD100200F2100F075FE42F262
:100740007020C0F2000000F0A7FE62E0FB6C042BFA
:100750000AD100200F2100F067FE42F27420C0F29F
:10076000000000F099FE54E0FB6C052B0AD100203C
:100770000F2100F059FE42F27820C0F2000000F094
:100780008BFE46E0FB6C062B0AD100200F2100F007
:100790004BFE42F27C20C0F2000000F07DFE38E00B
:1007A000FB6C072B0AD100200F2100F03DFE42F226
:1007B0008020C0F2000000F06FFE2AE0FB6C082BE6
:1007C0000AD100200F2100F02FFE42F28420C0F257
:1007D000000000F061FE1CE0FB6C092B0AD1002038
:1007E0000F2100F021FE42F28820C0F2000000F04C
:1007F00053FE0EE0FB6C0A2B0BD100200F2100F002
:1008000013FE42F28C20C0F2000000F045FE0023EF
:10081000FB647B6B002B11D14FF4D440C0F2180065
:1008200000F004FF00F02EFE0023FB650023BB65F3
:1008300000237B6500233B650023FB643B6B002B9F
:1008400040F07A844FF4D440C0F2180000F0EEFE7D
:10085000FA6D13469B0013445B001A46BB6D1344AC
:10086000184601F011FA04460D46386D01F00CFAF5
:1008700002460B46104619460FF6C403D3E900237F
:1008800001F068FA02460B462046294601F0B0F80E
:1008900002460B4614461D46F86C01F0F5F9024677
:1008A0000B46104619460FF6A003D3E9002301F0CA
:1008B00051FA02460B462046294601F099F80246B5
:1008C0000B461046194601F07FFC0346FB6297ED8C
:1008D0000B7AF3EE047AC7EE277AFDEEE77A17EE8D
:1008E000903ABB620120002100F09EFDBB6A042B00
:1008F00006D142F27420C0F2000000F0CDFD26E0E7
:10090000BB6A032B06D142F27020C0F2000000F057
:10091000C3FD1CE0BB6A022B06D142F26C20C0F280
:10092000000000F0B9FD12E0BB6A012B06D142F2D3
:100930006820C0F2000000F0AFFD08E0BB6A002BA9
:1009400005D142F28C20C0F2000000F0A5FD42F279
:100950009420C0F2000000F09FFD4FF49050C0F2D0
:100960007A0000F063FEBA6A13469B0013449B00B2
:1009700006EE903AF8EEE67A97ED0B7A37EE677A64
:10098000F2EE047AC7EE277AFDEEE77A17EE903A98
:100990007B620120002100F047FD7B6A002B06D11D
:1009A00042F28C20C0F2000000F076FD08E07B6A85
:1009B000012B05D142F26820C0F2000000F06CFD6E
:1009C00042F2A420C0F2000000F066FD4FF4905007
:1009D000C0F27A0000F02AFEBA6A13469B00134464
:1009E0009B0007EE103AF8EEC77A97ED0B7A37EED8
:1009F000677A7A6A13469B0013445B0006EE903ACE
:100A0000F8EEE67A37EE677AF1EE047AC7EE277AE7
:100A1000FDEEE77A17EE903A3B620120002100F0EC
:100A200003FD3B6A002B06D142F28C20C0F200008D
:100A300000F032FD08E03B6A012B05D142F268204C
:100A4000C0F2000000F028FD42F2B420C0F2000025
:100A500000F022FD4FF49050C0F27A0000F0E6FD65
:100A6000BA6A13469B0013449B0007EE103AF8EE57
:100A7000C77A97ED0B7A37EE677A7A6A13469B004E
:100A800013445B0006EE903AF8EEE67A37EE677AAA
:100A90003A6A13469B00134406EE903AF8EEE67A63
:100AA00077EE677AFDEEE77A17EE903AFB61012068
:100AB000002100F0B9FCFB69002B06D142F28C202A
:100AC000C0F2000000F0E8FC26E0FB69012B06D133
:100AD00042F26820C0F2000000F0DEFC1CE0FB697E
:100AE000022B06D142F26C20C0F2000000F0D4FCD0
:100AF00012E0FB69032B06D142F27020C0F2000025
:100B000000F0CAFC08E0FB69042B05D142F2742016
:100B1000C0F2000000F0C0FC42F2C420C0F20000AD
:100B200000F0BAFC4FF49050C0F27A0000F07EFD65
:100B3000BA6A13469B0013449B0007EE103AF8EE86
:100B4000C77A97ED0B7A37EE677A7A6A13469B007D
:100B500013445B0006EE903AF8EEE67A37EE677AD9
:100B60003A6A13469B00134406EE903AF8EEE67A92
:100B700037EE677AFB6906EE903AF8EEE67A77EEA2
:100B8000677A17EE900A01F091F802460B4610467C
:100B900019464FF000024FF00003C3F6E07301F076
:100BA00003FA02460B461046194601F0E5FA0346E1
:100BB000BB610120002100F037FCBB69002B06D18E
:100BC00042F28C20C0F2000000F066FC08E0BB6935
:100BD000012B05D142F26820C0F2000000F05CFC5D
:100BE00042F2D420C0F2000000F056FC4FF49050C6
:100BF000C0F27A0000F01AFDBA6A13469B00134453
:100C00009B0007EE103AF8EEC77A97ED0B7A37EEB5
:100C1000677A7A6A13469B0013445B0006EE903AAB
:100C2000F8EEE67A37EE677A3A6A13469B00134489
:100C300006EE903AF8EEE67A37EE677AFB6906EE52
:100C4000903AF8EEE67A77EE677A17EE900A01F0BE
:100C50002DF804460D46B86901F016F802460B4619
:100C6000104619464FF000024FF00003C3F6E07340
:100C700001F070F802460B462046294600F0B6FE09
:100C800002460B46104619464FF000024FF0000393
:100C9000C3F6D07301F088F902460B461046194698
:100CA00001F06AFA03467B610120002100F0BCFBE1
:100CB0007B69002B06D142F28C20C0F2000000F0CC
:100CC000EBFB08E07B69012B05D142F26820C0F202
:100CD000000000F0E1FB42F2E420C0F2000000F06E
:100CE000DBFB4FF49050C0F27A0000F09FFCBA6A30
:100CF00013469B0013449B0007EE103AF8EEC77AA8
:100D000097ED0B7A37EE677A7A6A13469B001344A5
:100D10005B0006EE903AF8EEE67A37EE677A3A6ACA
:100D200013469B00134406EE903AF8EEE67A37EE4F
:100D3000677AFB6906EE903AF8EEE67A77EE677A24
:100D400017EE900A00F0B2FF04460D46B86900F0B5
:100D50009BFF02460B46104619464FF000024FF02B
:100D60000003C3F6E07300F0F5FF02460B46204691
:100D7000294600F03BFE02460B4614461D467869A4
:100D800000F082FF02460B46104619464FF0000263
:100D90004FF00003C3F6D07300F0DCFF02460B46B1
:100DA0002046294600F022FE02460B461046194610
:100DB000E3A3D3E9002301F0F7F802460B461046FF
:100DC000194601F0D9F903463B610120002100F0EA
:100DD0002BFB3B69002B06D142F28C20C0F20000B5
:100DE00000F05AFB12E03B69012B06D142F2682069
:100DF000C0F2000000F050FB08E03B69022B05D177
:100E000042F26C20C0F2000000F046FB42F2F420F7
:100E1000C0F2000000F040FB4FF49050C0F27A00A6
:100E200000F004FCBA6A13469B0013449B0007EED3
:100E3000103AF8EEC77A97ED0B7A37EE677A7A6A4E
:100E400013469B0013445B0006EE903AF8EEE67AF8
:100E500037EE677A3A6A13469B00134406EE903ADF
:100E6000F8EEE67A37EE677AFB6906EE903AF8EE2E
:100E7000E67A77EE677A17EE900A00F017FF0446DD
:100E80000D46B86900F000FF02460B4610461946B1
:100E90004FF000024FF00003C3F6E07300F05AFF7A
:100EA00002460B462046294600F0A0FD02460B46AE
:100EB00014461D46786900F0E7FE02460B461046D0
:100EC00019464FF000024FF00003C3F6D07300F054
:100ED00041FF02460B462046294600F087FD0246A8
:100EE0000B4614461D46386900F0CEFE02460B46FE
:100EF0001046194692A3D3E9002300F02BFF0246C7
:100F00000B462046294600F071FD02460B4610466E
:100F100019468FA3D3E9002301F046F802460B4699
:100F20001046194601F028F90346FB600120002114
:100F300000F07AFAFB68002B06D142F28C20C0F256
:100F4000000000F0A9FA08E0FB68012B05D142F28D
:100F50006820C0F2000000F09FFA42F20430C0F2B4
:100F6000000000F099FA4FF49050C0F27A0000F0BF
:100F70005DFBBA6A13469B0013449B0007EE103AD0
:100F8000F8EEC77A97ED0B7A37EE677A7A6A1346EE
:100F90009B0013445B0006EE903AF8EEE67A37EEDB
:100FA000677A3A6A13469B00134406EE903AF8EECD
:100FB000E67A37EE677AFB6906EE903AF8EEE67A63
:100FC00077EE677A17EE900A00F070FE04460D4641
:100FD000B86900F059FE02460B46104619464FF01C
:100FE00000024FF00003C3F6E07300F0B3FE0246C8
:100FF0000B462046294600F0F9FC02460B461446F3
:101000001D46786900F040FE02460B461046194620
:101010004FF000024FF00003C3F6D07300F09AFEC9
:1010200002460B462046294600F0E0FC02460B46ED
:1010300014461D46386900F027FE02460B4610464E
:1010400019463FA3D3E9002300F084FE02460B4675
:101050002046294600F0CAFC02460B4614461D46AF
:10106000F86800F011FE02460B461046194638A3F8
:10107000D3E9002300F06EFE02460B4620462946C7
:1010800000F0B4FC02460B46104619462EA3D3E9E5
:10109000002300F089FF02460B461046194601F076
:1010A0006BF80346BB600120002100F0BDF9BB686E
:1010B000002B06D142F28C20C0F2000000F0ECF9C7
:1010C00026E0BB68012B06D142F26820C0F2000086
:1010D00000F0E2F91CE0BB68022B06D142F26C2062
:1010E000C0F2000000F0D8F912E0BB68032B06D173
:1010F00042F27020C0F2000000F0CEF908E0BB68B8
:10110000042B05D142F27420C0F2000000F0C4F9B3
:1011100042F21430C0F2000000F0BEF94FF49050DB
:10112000C0F27A0000F082FA0120002100F07CF980
:1011300000F0A8F9FFF7B7B8FFF7B5B8AFF3008034
:101140009A9999999999B93F7B14AE47E17A843F6E
:101150009A9999999999A93F80B500AF40F60100F5
:10116000CFF2000000F08EFB4FF4A040C4F200006C
:10117000FF2100F078FB4CF2503000F09BFB4FF465
:10118000A040C4F200000121002200F069FB4FF4EE
:10119000A040C4F20000F021302200F061FB4FF4C7
:1011A000A040C4F200000221022200F059FB0A20F4
:1011B00000F080FB4FF4A040C4F2000002210022A6
:1011C00000F04EFB4CF2503000F074FB4FF4A040A6
:1011D000C4F20000F021302200F042FB4FF4A040A6
:1011E000C4F200000221022200F03AFB0A2000F0C3
:1011F00061FB4FF4A040C4F200000221002200F085
:101200002FFB4CF2503000F055FB4FF4A040C4F2DD
:101210000000F021302200F023FB4FF4A040C4F284
:1012200000000221022200F01BFB0A2000F042FB1A
:101230004FF4A040C4F200000221002200F010FB95
:101240004CF2503000F036FB4FF4A040C4F20000E6
:10125000F021202200F004FB4FF4A040C4F2000073
:101260000221022200F0FCFA0A2000F023FB4FF4D6
:10127000A040C4F200000221002200F0F1FA4CF27A
:10128000503000F017FB282000F012F8C02000F0CA
:101290000FF8062000F00CF8802000F009F8282054
:1012A00000F006F80F2000F003F800F0EBF880BD26
:1012B00080B582B000AF0346FB71FB7923F00F03CA
:1012C000DBB24FF4A040C4F20000F0211A4600F057
:1012D000C7FA4FF4A040C4F200000121002200F040
:1012E000BFFA4FF4A040C4F200000221022200F035
:1012F000B7FA4CF2503000F0DDFA4FF4A040C4F2DF
:1013000000000221002200F0ABFA4CF2503000F055
:10131000D1FAFB791B01DBB24FF4A040C4F200000C
:10132000F0211A4600F09CFA4FF4A040C4F20000ED
:101330000121002200F094FA4FF4A040C4F2000012
:101340000221022200F08CFA0A2000F0B3FA4FF4D6
:10135000A040C4F200000221002200F081FA4CF209
:10136000503000F0A7FA0837BD4680BD80B582B086
:1013700000AF0346FB71FB7923F00F03DBB24FF4A0
:10138000A040C4F20000F0211A4600F069FA4FF4C0
:10139000A040C4F200000121012200F061FA4FF4E4
:1013A000A040C4F200000221022200F059FA0A20F3
:1013B00000F080FA4FF4A040C4F2000002210022A5
:1013C00000F04EFA4CF2503000F074FAFB791B0139
:1013D000DBB24FF4A040C4F20000F0211A4600F046
:1013E0003FFA4FF4A040C4F200000121012200F0B6
:1013F00037FA4FF4A040C4F200000221022200F0AC
:101400002FFA0A2000F056FA4FF4A040C4F2000070
:101410000221002200F024FA4CF2503000F04AFA87
:101420000837BD4680BD00BF80B582B000AF024620
:101430000B46FA71BB7197F90730002B0FD197F962
:101440000620D3171B0F1A4402F00F02D31ADBB287
:10145000DBB2803BDBB21846FFF72AFF0EE097F9BC
:101460000620D3171B0F1A4402F00F02D31ADBB267
:10147000DBB2403BDBB21846FFF71AFF0837BD4628
:1014800080BD00BF80B500AF0120FFF711FF0A202B
:1014900000F010FA80BD00BF80B582B000AF786068
:1014A00007E07B685A1C7A601B78DBB21846FFF7AE
:1014B0005DFF7B681B78002BF3D10837BD4680BDEC
:1014C00080B483B000AF4EF20813C4F20F034EF2A3
:1014D0000812C4F20F02126842F002021A604EF2C1
:1014E0000813C4F20F031B687B604FF4A843C4F2D7
:1014F00000034FF4A842C4F20002126842F00C024A
:101500001A6045F22043C4F2000345F22042C4F2BF
:101510000002126822F00C021A6045F21C53C4F259
:10152000000345F21C52C4F20002126842F00C02A1
:101530001A600C37BD465DF8047B704780B483B0F9
:1015400000AF4EF20813C4F20F034EF20812C4F2B9
:101550000F02126842F001021A604EF20813C4F240
:101560000F031B687B604FF48843C4F200034FF401
:101570008842C4F2000212681A6044F22043C4F2A6
:10158000000344F22042C4F20002126822F0FF027B
:101590001A6044F21C53C4F2000344F21C52C4F219
:1015A0000002126842F0FF021A600C37BD465DF877
:1015B000047B704780B483B000AF4EF20813C4F2CE
:1015C0000F034EF20812C4F20F02126842F0040236
:1015D0001A604EF20813C4F20F031B687B604FF4CD
:1015E000C843C4F200034FF4C842C4F200021268B8
:1015F0001A6046F22043C4F2000346F22042C4F2CD
:101600000002126822F0FF021A6046F21C53C4F274
:10161000000346F21C52C4F20002126842F0FF02BC
:101620001A600C37BD465DF8047B704780B485B006
:1016300000AF78600023FB6002E0FB680133FB60D1
:10164000FA687B689A42F8DB1437BD465DF8047B84
:10165000704700BF80B582B000AF42F22433C0F2C1
:1016600000037B6040F20003C2F200033B6007E02E
:101670003B681A1D3A607A68111D796012681A6019
:101680003A6840F20003C2F200039A42F0D30D48D8
:101690000D494FF000028842B8BF40F8042BFADB36
:1016A0004EF68853CEF200034EF68852CEF2000278
:1016B000126842F470021A60FEF7DAFD0837BD4680
:1016C00080BD0000000000200002002080B400AFB8
:1016D000FEE700BF80B400AFFEE700BF80B400AFFC
:1016E000FEE700BFD0F8003412F0010F10B500F58E
:1016F000806414BF0B438B43236012F0020FD0F8B9
:10170000202400F5846314BF114322EA010119600B
:1017100010BDF0B5560906F00306002451FA04F591
:1017200015F0010F11D0D0F8C47F65004FF0030C05
:101730000CFA05FC27EA0C07C0F8C47FD0F8C47F78
:1017400016FA05F53D43C0F8C45F0134082CE5D115
:10175000D0F8004512F0010F00F5A06514BF0C434E
:101760008C432C60D0F8045500F5A06412F0020FF1
:1017700004F1040414BF0D438D432560D0F80845DF
:1017800012F0040F00F5A16514BF0C438C432C60CC
:10179000D0F8184512F0080F00F5A36514BF0C43EC
:1017A0008C432C60D0F83C4512F0100F00F5A66277
:1017B00002F10C0214BF0C438C431460D0F80C45AA
:1017C00000F5A06213F0010F02F10C0214BF0C43EC
:1017D0008C431460D0F8102513F0020F00F5A264BA
:1017E00014BF0A438A432260D0F8144500F5A26270
:1017F00013F0040F02F1040214BF0C438C43146075
:10180000D0F81C4500F5A26213F0080F02F10C029B
:1018100014BF0C438C431460D0F8444500F5A86213
:1018200013F4007F02F1040214BF0C438C431460D4
:10183000D0F8402513F4407F00F5A86414BF0A4394
:101840008A43226000F5A56223B9D0F8283543EA1F
:10185000010103E0D0F8283523EA01011160F0BD51
:1018600040F82120704770B50122082305460C4638
:10187000FFF74FFF284621460122BDE87040FFF7E1
:1018800031BF00000A4B00F47F4200F0FF0003EB81
:101890001223800003F0704240F0007023F07F4379
:1018A000104323F4700340EA431301221A60704787
:1018B00000E60F400138FDD1704700004149F0B506
:1018C000414E0D68346845F4006525F4800344F406
:1018D000006415F0010F0B60346016D010F0010F9A
:1018E00013D160F001021340384A4FF4807515603F
:1018F0000B604FF4002201E0013A62D034490968DC
:1019000011F4807FF8D0002A5BD000F4FE6223F44B
:10191000FE6330492D4E134324F0004200EA0101DA
:1019200022F0700241EA020200F0080142EAC1021C
:10193000244C2549236000F400550A6023F4005329
:1019400022F400522B4340272A4337604EBF0A60DF
:1019500023600A60204948BF236023F0F86300EA4F
:10196000010123F001030B4322F0FC5200F0FC5173
:1019700010F0804F42EA010208D0184922F4800298
:1019800000EA010143F480030A4301E022F08042AF
:1019900010F4006F0CD14FF400411148006810F0B2
:1019A000010F01D10139F8D123F4006322F4006260
:1019B00004490B60044B10201A60BDE8F040FFF7AB
:1019C00079BFF0BD60E00F4070E00F4058E00F407D
:1019D00050E00F40300000800100C0070000404090
:1019E00068E10F4081F0004102E000BF83F0004356
:1019F00030B54FEA41044FEA430594EA050F08BFAA
:101A000090EA020F1FBF54EA000C55EA020C7FEA6D
:101A1000645C7FEA655C00F0E2804FEA5454D4EBEA
:101A20005555B8BF6D420CDD2C4480EA020281EAB4
:101A3000030382EA000083EA010180EA020281EAEC
:101A40000303362D88BF30BD11F0004F4FEA01313E
:101A50004FF4801C4CEA113102D0404261EB41014D
:101A600013F0004F4FEA03334CEA133302D05242D3
:101A700063EB430394EA050F00F0A780A4F101048F
:101A8000D5F1200E0DDB02FA0EFC22FA05F28018C9
:101A900041F1000103FA0EF2801843FA05F35941AF
:101AA0000EE0A5F120050EF1200E012A03FA0EFC2E
:101AB00028BF4CF0020C43FA05F3C01851EBE37158
:101AC00001F0004507D54FF0000EDCF1000C7EEB75
:101AD00000006EEB0101B1F5801F1BD3B1F5001FB3
:101AE0000CD349085FEA30004FEA3C0C04F10104D2
:101AF0004FEA445212F5800F80F09A80BCF1004FFB
:101B000008BF5FEA500C50F1000041EB045141EA7C
:101B1000050130BD5FEA4C0C404141EB010111F47D
:101B2000801FA4F10104E9D191F0000F04BF014628
:101B30000020B1FA81F308BF2033A3F10B03B3F106
:101B400020020CDA0C3208DD02F1140CC2F10C0296
:101B500001FA0CF021FA02F10CE002F11402D8BFF4
:101B6000C2F1200C01FA02F120FA0CFCDCBF41EAC0
:101B70000C019040E41AA2BF01EB0451294330BD8F
:101B80006FEA04041F3C1CDA0C340EDC04F114046C
:101B9000C4F1200220FA04F001FA02F340EA030043
:101BA00021FA04F345EA030130BDC4F10C04C4F189
:101BB000200220FA02F001FA04F340EA0300294669
:101BC00030BD21FA04F0294630BD94F0000F83F4B3
:101BD000801306BF81F480110134013D4EE77FEA96
:101BE000645C18BF7FEA655C29D094EA050F08BFE2
:101BF00090EA020F05D054EA000C04BF19461046C3
:101C000030BD91EA030F1EBF0021002030BD5FEA06
:101C1000545C05D14000494128BF41F0004130BD2E
:101C200014F580043CBF01F5801130BD01F0004582
:101C300045F0FE4141F470014FF0000030BD7FEAF5
:101C4000645C1ABF194610467FEA655C1CBF0B46F0
:101C5000024650EA013406BF52EA033591EA030F07
:101C600041F4002130BD00BF90F0000F04BF0021FF
:101C7000704730B54FF4806404F132044FF0000532
:101C80004FF0000150E700BF90F0000F04BF0021AB
:101C9000704730B54FF4806404F1320410F0004511
:101CA00048BF40424FF000013EE700BF42004FEA0C
:101CB000E2014FEA31014FEA02701FBF12F07F4389
:101CC00093F07F4F81F06051704792F0000F14BF86
:101CD00093F07F4F704730B54FF4607401F00045CA
:101CE00021F0004120E700BF50EA010208BF704721
:101CF00030B54FF000050AE050EA010208BF704716
:101D000030B511F0004502D5404261EB41014FF47E
:101D1000806404F132045FEA915C3FF4DCAE4FF082
:101D200003025FEADC0C18BF03325FEADC0C18BF69
:101D3000033202EBDC02C2F1200300FA03FC20FABA
:101D400002F001FA03FE40EA0E0021FA02F1144407
:101D5000C1E600BF70B54FF0FF0C4CF4E06C1CEA1C
:101D600011541DBF1CEA135594EA0C0F95EA0C0F91
:101D700000F0DEF82C4481EA030621EA4C5123EA04
:101D80004C5350EA013518BF52EA033541F4801133
:101D900043F4801338D0A0FB02CE4FF00005E1FBE6
:101DA00002E506F00042E0FB03E54FF00006E1FB30
:101DB00003569CF0000F18BF4EF0010EA4F1FF0473
:101DC000B6F5007F64F5407404D25FEA4E0E6D41B3
:101DD00046EB060642EAC62141EA55514FEAC520C4
:101DE00040EA5E504FEACE2EB4F1FD0C88BFBCF540
:101DF000E06F1ED8BEF1004F08BF5FEA500E50F1F1
:101E0000000041EB045170BD06F0004646EA0101B6
:101E100040EA020081EA0301B4EB5C04C2BFD4EBE8
:101E20000C0541EA045170BD41F480114FF0000EE1
:101E3000013C00F3AB8014F1360FDEBF002001F04F
:101E4000004170BDC4F10004203C35DA0C341BDCC9
:101E500004F11404C4F1200500FA05F320FA04F09B
:101E600001FA05F240EA020001F0004221F00041CF
:101E700010EBD37021FA04F642EB06015EEA430E42
:101E800008BF20EAD37070BDC4F10C04C4F1200572
:101E900000FA04F320FA05F001FA04F240EA020025
:101EA00001F0004110EBD37041F100015EEA430EF6
:101EB00008BF20EAD37070BDC4F1200500FA05F216
:101EC0004EEA020E20FA04F301FA05F243EA020395
:101ED00021FA04F001F0004121FA04F220EA0200A4
:101EE00000EBD3705EEA430E08BF20EAD37070BDEA
:101EF00094F0000F0FD101F00046400041EB0101CA
:101F000011F4801F08BF013CF7D041EA060195F0AB
:101F1000000F18BF704703F00046520043EB030365
:101F200013F4801F08BF013DF7D043EA0603704752
:101F300094EA0C0F0CEA135518BF95EA0C0F0CD05D
:101F400050EA410618BF52EA4306D1D181EA0301A3
:101F500001F000414FF0000070BD50EA410606BF9D
:101F60001046194652EA430619D094EA0C0F02D1E2
:101F700050EA013613D195EA0C0F05D152EA033627
:101F80001CBF104619460AD181EA030101F0004145
:101F900041F0FE4141F470014FF0000070BD41F08E
:101FA000FE4141F4780170BD70B54FF0FF0C4CF468
:101FB000E06C1CEA11541DBF1CEA135594EA0C0F87
:101FC00095EA0C0F00F0A7F8A4EB050481EA030ED4
:101FD00052EA03354FEA013100F088804FEA0333BB
:101FE0004FF0805545EA131343EA12634FEA022289
:101FF00045EA111545EA10654FEA00260EF000414A
:102000009D4208BF964244F1FD0404F5407402D29B
:102010005B084FEA3202B61A65EB03055B084FEA2C
:1020200032024FF480104FF4002CB6EB020E75EB29
:10203000030E22BFB61A754640EA0C005B084FEA51
:102040003202B6EB020E75EB030E22BFB61A7546CE
:1020500040EA5C005B084FEA3202B6EB020E75EB19
:10206000030E22BFB61A754640EA9C005B084FEA91
:102070003202B6EB020E75EB030E22BFB61A75469E
:1020800040EADC0055EA060E18D04FEA051545EA8D
:1020900016754FEA06164FEAC30343EA52734FEA36
:1020A000C2025FEA1C1CC0D111F4801F0BD141EAAF
:1020B00000014FF000004FF0004CB6E711F4801F14
:1020C00004BF01430020B4F1FD0C88BFBCF5E06FF4
:1020D0003FF6AFAEB5EB030C04BFB6EB020C5FEA04
:1020E000500C50F1000041EB045170BD0EF0004E59
:1020F0004EEA113114EB5C04C2BFD4EB0C0541EA8B
:10210000045170BD41F480114FF0000E013C90E687
:1021100045EA060E8DE60CEA135594EA0C0F08BF4B
:1021200095EA0C0F3FF43BAF94EA0C0F0AD150EA4A
:1021300001347FF434AF95EA0C0F7FF425AF1046DD
:1021400019462CE795EA0C0F06D152EA03353FF405
:10215000FDAE1046194622E750EA410618BF52EA82
:1021600043067FF4C5AE50EA41047FF40DAF52EA56
:1021700043057FF4EBAE12E74FEA410212F500127D
:1021800015D211D56FF47873B3EB625212D94FEABE
:10219000C12343F0004343EA505311F0004F23FAA8
:1021A00002F018BF404270474FF00000704750EAFD
:1021B000013005D111F0004008BF6FF000407047BA
:1021C0004FF00000704700BF4FEA4102B2F1E04318
:1021D00024BFB3F5001CDCF1FE5C0DD901F0004C0E
:1021E0004FEAC0024CEA5070B2F1004F40EB83005E
:1021F00008BF20F00100704711F0804F21D113F18A
:102200003872BCBF01F00040704741F480114FEAC2
:102210005252C2F11802C2F1200C10FA0CF320FA4B
:1022200002F018BF40F001004FEAC1234FEAD32368
:1022300003FA0CFC40EA0C0023FA02F34FEA4303D2
:10224000CCE77FEA625307D150EA01331EBF4FF05B
:10225000FE4040F44000704701F0004040F0FE4076
:1022600040F40000704700BF310000003200000061
:10227000330000003400000035000000360000008C
:102280003700000038000000390000003000000076
:102290002E000000202D207969726D696C696B2019
:1022A00000000000202D206F6E6C756B2020202018
:1022B00000000000202D206265736C696B202020D7
:1022C00000000000202D206269726C696B202020C4
:1022D00000000000202D20796172696D6C696B200F
:1022E00000000000202D2063657972656B6C696BBE
:1022F00000000000202D206D6574656C696B202046
:1023000000000000202D2064656C696B20202020D7
:1023100000000000202D206B757275736C756B20AA
:0423200000000000B9
:00000001FF
